:100000000C9434000C9451000C9451000C94510049
:100010000C9451000C9451000C9451000C9451001C
:100020000C9451000C9451000C9451000C9453000A
:100030000C9451000C9451000C9451000C945100FC
:100040000C9451000C9451000C9451000C945100EC
:100050000C9451000C9451000C9451000C945100DC
:100060000C9451000C94510011241FBECFEFD8E026
:10007000DEBFCDBF11E0A0E0B1E0EEE7F6E002C0E8
:1000800005900D92AC37B107D9F721E0ACE7B1E0AC
:1000900001C01D92A238B207E1F70E94AB020C9496
:1000A0003D030C9400001F921FB61F921124109262
:1000B0008500109284001F901FBE1F901895CF934B
:1000C000DF93EC010E94DE0188818D3481F40E946F
:1000D000DE018EE291E00E94FC0161E080E00E947E
:1000E000D30186E391E0DF91CF910C94FC0183343E
:1000F00091F40E94DE0180E491E00E94FC0161E045
:1001000080E00E94D301CE0101960E94FC01DF91A4
:10011000CF910C9458028735D1F40E94DE0181E51D
:1001200091E00E94FC0161E080E00E94D301CE01D9
:1001300001960E94FC010E94630288E090E00E9408
:100140007D0281E290E0DF91CF910C94A60284358C
:10015000B9F40E94DE018EE291E00E94FC0161E0B0
:1001600080E00E94D30181E691E00E94FC010E94A0
:10017000630288E090E00E947D028BE092E0E3CF92
:10018000823569F40E94DE018EE291E00E94FC015A
:1001900061E080E00E94D3018DE691E0B6CFDF916F
:1001A000CF91089521E1FC0111922A95E9F78CE0A5
:1001B0000E9417020E94DE0183E791E00E94FC0189
:1001C0000C9458028093BA00ECEBF0E080818464D8
:1001D000808380818F7C80830895CF93DF93DC01BF
:1001E0008091BC0087FFFCCF80E1FD0111928A95D0
:1001F000E9F78091BC0087FFFCCF8091B900809126
:10020000BC00846C8093BC008091BC0087FFFCCF55
:100210008091B900887FED0120E0982F9F7E903873
:1002200059F0983811F58091BB00FD01E20FF11DE6
:100230008083DF91CF9108958091BB0089932F5FD8
:10024000CE010197FC018081811599F3203189F35A
:100250008091BC00846C8093BC008091BC0087FFBF
:10026000FCCF8091B900887FD8CF803A11F7809178
:10027000BC0080688093BC00DCCFCF93C82F8A304D
:1002800019F48DE00E943D018091C00085FFFCCFF4
:10029000C093C60080E090E0CF9108950C94FE02D8
:1002A0009093C5008093C40088E18093C1008EE0E4
:1002B0008093C20008952C9A85E08A95F1F700009A
:1002C0002C980895CF93C82F611541F12A9A2B9845
:1002D000549A559A569A579A5F985E985D985C988A
:1002E000C7FD5F9AC6FD5E9AC5FD5D9AC4FD5C9A26
:1002F0000E945B015F985E985D985C98C3FD5F9A71
:10030000C2FD5E9AC1FD5D9AC0FD5C9A0E945B01D0
:100310005C9A5D9A5E9A5F9ACF9108952A98D7CF9A
:100320002A982B9A54985598569857982C9A85E065
:100330008A95F1F7000089B180714D9980624E99DC
:1003400080644F9980682C9895E09A95F1F70000A9
:100350002C9A95E09A95F1F700004C9981604D999F
:1003600082604E9984604F9988602C9808950E940D
:10037000900187FDFCCF85E18A95F1F700000C9490
:100380009001CF93C82F0E94B70160E08C2FCF91CE
:100390000C946201CF93C82F0E94B70161E08C2FAB
:1003A000CF910C946201611103C080580C94C1017B
:1003B0008054FCCF0E94B70190E0089581E00C9436
:1003C000C10182E00C94C101CF93C82F0E94B701F4
:1003D000CA3069F491E0803408F090E0892F82956A
:1003E000880F880F807C8058CF910C94C10161E008
:1003F0008C2FCF910C946201CF93DF93EC01899104
:10040000811103C0DF91CF9108950E94E401CE01D4
:10041000F5CFCF93DF93EC01FE01849121968111FA
:1004200003C0DF91CF9108950E94E401F5CFCF93EF
:10043000C82F229A239A249A549A559A569A579AD0
:100440008FEF99EF0197F1F700C000005D9A5C9A79
:100450000E945B018FE19EE40197F1F700C000006C
:100460000E945B018FEF90E00197F1F700C0000060
:100470000E945B018FEF90E00197F1F700C0000050
:100480005C980E945B018FEF90E00197F1F700C04C
:10049000000088E20E94C10188E00E94C1010E9420
:1004A000DE0186E00E94C1018C2FCF910C94C10126
:1004B00010928000109281001092850010928400AA
:1004C00010926F00089578940E945802E0E8F0E0DE
:1004D000808180648083808181608083E1E8F0E0B6
:1004E000808180618083EFE6F0E08081826080839C
:1004F000109285001092840008959C01803491052B
:10050000C9F030F48130910559F0089779F00895D9
:10051000211581E0380791F02115344099F00895B4
:100520008091810081608093810008958091810095
:100530008260F9CF809181008360F5CF8091810046
:100540008460F1CF809181008560EDCF9093890028
:10055000809388000895CDB7DEB760970FB6F89402
:10056000DEBF0FBECDBF84B18C6384B98AB1806F0A
:100570008AB9219A8E010F5F1F4F80E1F801119215
:100580008A95E9F787E690E00E94500180E091E0CB
:1005900090937D0180937C018EE091E090937F01A8
:1005A00080937E018CE00E9417020E94DE0183E7A7
:1005B00091E00E94FC018AEA0E94E2008091BC0066
:1005C00087FF07C0C8010E94ED00C8010E945F00BC
:1005D000F5CF2D9AFFEF23EC89E0F15020408040C9
:1005E000E1F700C000002D989FEFE3ECF9E0915097
:1005F000E040F040E1F700C00000E0CFCF93DF9390
:10060000EC018B8180FF1BC086FF0CC08F7B8B832E
:100610008E819F8101969F838E838A8190E0DF91F6
:10062000CF91089582FF19C0E881F9819081292F27
:10063000092E000C330B911105C080628B838FEF64
:100640009FEFEDCF3196F983E8838E819F810196EC
:100650009F838E83C9019927E2CFEA85FB85CE016E
:1006600009959C0197FFF1CF8B812F3F3F4F19F4E4
:0E06700090E1892BE3CF90E2FCCFF894FFCF0E
:10067E00000000010000000000004E01000000001C
:10068E000002000000003D01000000000500010016
:10069E000700060005000400040003000200537466
:1006AE00617475733A004D6F76656D656E742100D9
:1006BE00436F72726563742050617373776F7264E7
:1006CE000057726F6E672050617373776F72643A62
:1006DE000054494D45204953205550210041726D1B
:0C06EE0065640057656C636F6D6521004A
:00000001FF
